{
  "contractName": "SecretStorage",
  "abi": [
    {
      "inputs": [
        {
          "internalType": "string",
          "name": "_secret",
          "type": "string"
        }
      ],
      "name": "setSecret",
      "outputs": [],
      "stateMutability": "nonpayable",
      "type": "function"
    },
    {
      "inputs": [],
      "name": "getSecrets",
      "outputs": [
        {
          "components": [
            {
              "internalType": "uint256",
              "name": "id",
              "type": "uint256"
            },
            {
              "internalType": "string",
              "name": "secret",
              "type": "string"
            },
            {
              "internalType": "uint256",
              "name": "createdAt",
              "type": "uint256"
            }
          ],
          "internalType": "struct SecretStorage.SecretStruct[]",
          "name": "",
          "type": "tuple[]"
        }
      ],
      "stateMutability": "view",
      "type": "function",
      "constant": true
    },
    {
      "inputs": [
        {
          "internalType": "uint256",
          "name": "_index",
          "type": "uint256"
        }
      ],
      "name": "getSecretByIndex",
      "outputs": [
        {
          "components": [
            {
              "internalType": "uint256",
              "name": "id",
              "type": "uint256"
            },
            {
              "internalType": "string",
              "name": "secret",
              "type": "string"
            },
            {
              "internalType": "uint256",
              "name": "createdAt",
              "type": "uint256"
            }
          ],
          "internalType": "struct SecretStorage.SecretStruct",
          "name": "",
          "type": "tuple"
        }
      ],
      "stateMutability": "view",
      "type": "function",
      "constant": true
    }
  ],
  "bytecode": "0x608060405234801561000f575f80fd5b50610cb08061001d5f395ff3fe608060405234801561000f575f80fd5b506004361061003f575f3560e01c806335c600e6146100435780637ed6c92614610073578063996e2bee1461008f575b5f80fd5b61005d600480360381019061005891906104e0565b6100ad565b60405161006a91906105f1565b60405180910390f35b61008d6004803603810190610088919061073d565b610245565b005b610097610344565b6040516100a4919061088c565b60405180910390f35b6100b561047d565b5f803373ffffffffffffffffffffffffffffffffffffffff1673ffffffffffffffffffffffffffffffffffffffff1681526020019081526020015f20805490508210610136576040517f08c379a000000000000000000000000000000000000000000000000000000000815260040161012d90610906565b60405180910390fd5b5f803373ffffffffffffffffffffffffffffffffffffffff1673ffffffffffffffffffffffffffffffffffffffff1681526020019081526020015f20828154811061018457610183610924565b5b905f5260205f2090600302016040518060600160405290815f82015481526020016001820180546101b49061097e565b80601f01602080910402602001604051908101604052809291908181526020018280546101e09061097e565b801561022b5780601f106102025761010080835404028352916020019161022b565b820191905f5260205f20905b81548152906001019060200180831161020e57829003601f168201915b505050505081526020016002820154815250509050919050565b5f60015f803373ffffffffffffffffffffffffffffffffffffffff1673ffffffffffffffffffffffffffffffffffffffff1681526020019081526020015f208054905061029291906109db565b90505f4290505f803373ffffffffffffffffffffffffffffffffffffffff1673ffffffffffffffffffffffffffffffffffffffff1681526020019081526020015f20604051806060016040528084815260200185815260200183815250908060018154018082558091505060019003905f5260205f2090600302015f909190919091505f820151815f015560208201518160010190816103329190610bab565b50604082015181600201555050505050565b60605f803373ffffffffffffffffffffffffffffffffffffffff1673ffffffffffffffffffffffffffffffffffffffff1681526020019081526020015f20805480602002602001604051908101604052809291908181526020015f905b82821015610474578382905f5260205f2090600302016040518060600160405290815f82015481526020016001820180546103db9061097e565b80601f01602080910402602001604051908101604052809291908181526020018280546104079061097e565b80156104525780601f1061042957610100808354040283529160200191610452565b820191905f5260205f20905b81548152906001019060200180831161043557829003601f168201915b50505050508152602001600282015481525050815260200190600101906103a1565b50505050905090565b60405180606001604052805f8152602001606081526020015f81525090565b5f604051905090565b5f80fd5b5f80fd5b5f819050919050565b6104bf816104ad565b81146104c9575f80fd5b50565b5f813590506104da816104b6565b92915050565b5f602082840312156104f5576104f46104a5565b5b5f610502848285016104cc565b91505092915050565b610514816104ad565b82525050565b5f81519050919050565b5f82825260208201905092915050565b5f5b83811015610551578082015181840152602081019050610536565b5f8484015250505050565b5f601f19601f8301169050919050565b5f6105768261051a565b6105808185610524565b9350610590818560208601610534565b6105998161055c565b840191505092915050565b5f606083015f8301516105b95f86018261050b565b50602083015184820360208601526105d1828261056c565b91505060408301516105e6604086018261050b565b508091505092915050565b5f6020820190508181035f83015261060981846105a4565b905092915050565b5f80fd5b5f80fd5b7f4e487b71000000000000000000000000000000000000000000000000000000005f52604160045260245ffd5b61064f8261055c565b810181811067ffffffffffffffff8211171561066e5761066d610619565b5b80604052505050565b5f61068061049c565b905061068c8282610646565b919050565b5f67ffffffffffffffff8211156106ab576106aa610619565b5b6106b48261055c565b9050602081019050919050565b828183375f83830152505050565b5f6106e16106dc84610691565b610677565b9050828152602081018484840111156106fd576106fc610615565b5b6107088482856106c1565b509392505050565b5f82601f83011261072457610723610611565b5b81356107348482602086016106cf565b91505092915050565b5f60208284031215610752576107516104a5565b5b5f82013567ffffffffffffffff81111561076f5761076e6104a9565b5b61077b84828501610710565b91505092915050565b5f81519050919050565b5f82825260208201905092915050565b5f819050602082019050919050565b5f606083015f8301516107c25f86018261050b565b50602083015184820360208601526107da828261056c565b91505060408301516107ef604086018261050b565b508091505092915050565b5f61080583836107ad565b905092915050565b5f602082019050919050565b5f61082382610784565b61082d818561078e565b93508360208202850161083f8561079e565b805f5b8581101561087a578484038952815161085b85826107fa565b94506108668361080d565b925060208a01995050600181019050610842565b50829750879550505050505092915050565b5f6020820190508181035f8301526108a48184610819565b905092915050565b5f82825260208201905092915050565b7f496e646578206f7574206f6620626f756e6473000000000000000000000000005f82015250565b5f6108f06013836108ac565b91506108fb826108bc565b602082019050919050565b5f6020820190508181035f83015261091d816108e4565b9050919050565b7f4e487b71000000000000000000000000000000000000000000000000000000005f52603260045260245ffd5b7f4e487b71000000000000000000000000000000000000000000000000000000005f52602260045260245ffd5b5f600282049050600182168061099557607f821691505b6020821081036109a8576109a7610951565b5b50919050565b7f4e487b71000000000000000000000000000000000000000000000000000000005f52601160045260245ffd5b5f6109e5826104ad565b91506109f0836104ad565b9250828201905080821115610a0857610a076109ae565b5b92915050565b5f819050815f5260205f209050919050565b5f6020601f8301049050919050565b5f82821b905092915050565b5f60088302610a6a7fffffffffffffffffffffffffffffffffffffffffffffffffffffffffffffffff82610a2f565b610a748683610a2f565b95508019841693508086168417925050509392505050565b5f819050919050565b5f610aaf610aaa610aa5846104ad565b610a8c565b6104ad565b9050919050565b5f819050919050565b610ac883610a95565b610adc610ad482610ab6565b848454610a3b565b825550505050565b5f90565b610af0610ae4565b610afb818484610abf565b505050565b5b81811015610b1e57610b135f82610ae8565b600181019050610b01565b5050565b601f821115610b6357610b3481610a0e565b610b3d84610a20565b81016020851015610b4c578190505b610b60610b5885610a20565b830182610b00565b50505b505050565b5f82821c905092915050565b5f610b835f1984600802610b68565b1980831691505092915050565b5f610b9b8383610b74565b9150826002028217905092915050565b610bb48261051a565b67ffffffffffffffff811115610bcd57610bcc610619565b5b610bd7825461097e565b610be2828285610b22565b5f60209050601f831160018114610c13575f8415610c01578287015190505b610c0b8582610b90565b865550610c72565b601f198416610c2186610a0e565b5f5b82811015610c4857848901518255600182019150602085019450602081019050610c23565b86831015610c655784890151610c61601f891682610b74565b8355505b6001600288020188555050505b50505050505056fea2646970667358221220c4c81405d7b2f0e236a2cb8d78aa1d233478ad6dcb86bdcd64c17f7ae7248a3964736f6c63430008150033",
  "immutableReferences": {},
  "source": "// SPDX-License-Identifier: MIT\npragma solidity >=0.4.22 <0.9.0;\n\ncontract SecretStorage {\n\n    struct SecretStruct {\n        uint256 id;\n        string secret;\n        uint256 createdAt;\n    }\n\n    mapping(address => SecretStruct[]) private secrets;\n\n    // Store a new secret\n    function setSecret(string memory _secret) public {\n        uint256 newId = secrets[msg.sender].length + 1;\n        uint256 currentTimestamp = block.timestamp;\n\n        secrets[msg.sender].push(SecretStruct({\n            id: newId,\n            secret: _secret,\n            createdAt: currentTimestamp\n        }));\n    }\n\n    // Get all secrets for a user\n    function getSecrets() public view returns (SecretStruct[] memory) {\n        return secrets[msg.sender];\n    }\n\n    // Get a specific secret for a user by index\n    function getSecretByIndex(uint256 _index) public view returns (SecretStruct memory) {\n        require(_index < secrets[msg.sender].length, \"Index out of bounds\");\n        return secrets[msg.sender][_index];\n    }\n}\n",
  "sourcePath": "/root/lockchain/smart-contract/contracts/secret.sol",
  "compiler": {
    "name": "solc",
    "version": "0.8.21+commit.d9974bed.Emscripten.clang"
  },
  "schemaVersion": "3.4.16",
  "updatedAt": "2024-08-18T13:49:25.254Z",
  "networkType": "ethereum",
  "devdoc": {
    "kind": "dev",
    "methods": {},
    "version": 1
  },
  "userdoc": {
    "kind": "user",
    "methods": {},
    "version": 1
  }
}